:200000000C947F0E0C94AC0E0C94AC0E0C94AC0E0C94AC0E0C94AC0E0C94AC0E0C94AC0E3D
:200020000C94AC0E0C94AC0E0C94AC0E0C94AC0E0C94AC0E0C9428D40C94AC0E0C94AC0EAE
:200040000C94AC0E0C94F1760C94AC0E0C94AC0E0C94AC0E0C94AC0E0C946D800C9473D067
:200060000C94AC0E0C9400270C94AC0E0C94AC0E0C94AC0E0C94AC0E0C94AC0E0C94AC0E43
:200080000C94AC0E0C94AC0E0C94AC0E0C94AC0E0C94AC0E0C94AC0E0C94AC0E0C94FACC84
:2000A0000C94AC0E0C94AC0E0C94AC0E0C94AC0E0C94AC0E0C94AC0E0C94AC0E0C94AC0E70
:2000C0000C94AC0E0C94AC0E0C94AC0E0C94AC0E0C94AC0E0C94AC0E0C94AC0E0C94AC0E50
:2000E0000C94AC0E084AD73B3BCE016E84BCBFFDC12F3D6C74319ABD56833DDA3D00C77FC6
:2001000011BED9E4BB4C3E916BAAAABE000000803F05A84CCDB2D44EB93836A9020C50B9C0
:20012000918688083CA6AAAA2ABE000000803F4D383420582059205A20450043616E6E6FC3
:200140007420656E746572207375626469723A20004D3234004D3233202573006175746F14
:2001600025692E67006572726F722077726974696E6720746F2066696C65004E6F742053A7
:2001800044207072696E74696E67002F005344207072696E74696E67206279746520002E1D
:2001A0000044656C6574696F6E206661696C65642C2046696C653A200046696C65206465F7
:2001C0006C657465643A002E006F70656E206661696C65642C2046696C653A20005772691A
:2001E00074696E6720746F2066696C653A20002E006F70656E206661696C65642C204669D0
:200200006C653A20002E006F70656E206661696C65642C2046696C653A200046696C652088
:2002200073656C6563746564002053697A653A200046696C65206F70656E65643A20002EBD
:20024000006F70656E206661696C65642C2046696C653A20004E6F7720667265736820664F
:20026000696C653A20004E6F7720646F696E672066696C653A20002220706F730022207025
:200280006172656E743A2200535542524F5554494E452043414C4C207461726765743A2299
:2002A00000747279696E6720746F2063616C6C207375622D67636F64652066696C657320F6
:2002C0007769746820746F6F206D616E79206C6576656C732E204D4158206C6576656C20E4
:2002E00069733A0053442063617264206F6B006F70656E526F6F74206661696C656400764C
:200300006F6C756D652E696E6974206661696C656400534420696E6974206661696C0048E5
:20032000617264636F6465642044656661756C742053657474696E6773204C6F61646564C8
:20034000002044002049002020204D3330312050005049442073657474696E67733A002057
:200360005A0020590020204D323036205800486F6D65206F666673657420286D6D293A0058
:20038000204500205A0020580020420020540020204D323035205300416476616E63656483
:2003A000207661726961626C65732028556E69743A20423D6D732C204F74686572733D6D58
:2003C0006D2F73293A20533D4D696E2066656564726174652C20543D4D696E207472617699
:2003E000656C2066656564726174652C20423D4D696E207365676D656E742074696D652CCF
:2004000020583D4D6178205859206A65726B2C20205A3D4D6178205A206A65726B2C202089
:20042000453D4D61782045206A65726B0020540020204D323034205300416363656C65722A
:200440006174696F6E3A20533D616363656C65726174696F6E2C20543D72657472616374DB
:2004600020616363656C65726174696F6E00204500205A0020590020204D32303120580082
:200480004D6178696D756D20416363656C65726174696F6E20286D6D2F7332293A002045D6
:2004A00000205A0020590020204D3230332058004D6178696D756D20666565647261746571
:2004C0007320286D6D2F73293A00204500205A0020590020204D39322058005374657073AB
:2004E0002070657220756E69743A004572726F723A006563686F3A0053544F505045442E11
:2005000020005072696E7465722073746F707065642064756520746F206572726F72732E6C
:200520002046697820746865206572726F7220616E6420757365204D39393920746F20725C
:200540006573746172742E202854656D70657261747572652069732072657365742E205324
:2005600065742069742061667465722072657374617274696E6729004B494C4C45442E20E4
:20058000005072696E7465722068616C7465642E206B696C6C28292063616C6C65642100F4
:2005A0006F6B00526573656E643A20002200556E6B6E6F776E20636F6D6D616E643A202219
:2005C000004368616E67652066696C616D656E74005A204F6666736574203A20007A5F6DC4
:2005E00061783A20007A5F6D696E3A20005A204F6666736574005A204F6666736574206F00
:200600006B007A5F6D61783A20007A5F6D696E3A2000795F6D61783A2000795F6D696E3AB1
:200620002000785F6D61783A2000785F6D696E3A2000205A3A0020593A0020436F756E741E
:2006400020583A200020453A00205A3A0020593A00583A004649524D574152455F4E414D98
:20066000453A4D61726C696E2056312E302E323B20537072696E7465722F6772626C206D1E
:20068000617368757020666F722067656E36204649524D574152455F55524C3A6874747079
:2006A000733A2F2F6769746875622E636F6D2F4D61726C696E4669726D776172652F4D6193
:2006C000726C696E2050524F544F434F4C5F56455253494F4E3A312E30204D414348494EB5
:2006E000455F545950453A45454C4943203232324D424C312045585452554445525F434F32
:20070000554E543A3120555549443A33613230326164302D356361312D313165632D626626
:2007200036332D3032343261633133303030320A0045454C4943203232324D424C31204FD4
:2007400066662E0045454C4943203232324D424C312072656164792E0042656420646F6EAC
:20076000652E0020423A0020453A00543A004265642048656174696E672E00486561746919
:200780006E6720646F6E652E0020573A0020453A00543A0048656174696E672E2E2E002048
:2007A00042403A0020403A00202F003A00205400202F0020423A00202F006F6B20543A0024
:2007C0002569206D696E2C2025692073656300456E642066696C65206C6973740042656731
:2007E000696E2066696C65206C697374004E6F206D6F76652E0045454C4943203232324D5F
:20080000424C312072656164792E00526573756D696E67207072696E740057616974206604
:200820006F7220757365722E2E2E00536C6565702E2E2E00FFFFFF000052430000524300C4
:200840000052430000A0400000A04000000040000000000000000000000000000000000003
:2008600000000000000000000052430000524300005243256920686F757273202569206D9F
:20088000696E7574657300446F6E65207072696E74696E672066696C650053544F50504514
:2008A000442E20005072696E7465722073746F707065642064756520746F206572726F72F8
:2008C000732E2046697820746865206572726F7220616E6420757365204D39393920746FAA
:2008E00020726573746172742E202854656D70657261747572652069732072657365742E62
:20090000205365742069742061667465722072657374617274696E6729004E6F204C696ED0
:2009200065204E756D626572207769746820636865636B73756D2C204C617374204C696E57
:20094000653A20004E6F20436865636B73756D2077697468206C696E65206E756D6265727B
:200960002C204C617374204C696E653A2000636865636B73756D206D69736D617463682CA0
:20098000204C617374204C696E653A20004C696E65204E756D626572206973206E6F742003
:2009A0004C617374204C696E65204E756D6265722B312C204C617374204C696E653A200034
:2009C0004D31313000446F6E6520736176696E672066696C652E006F6B004D32390020204A
:2009E000506C616E6E657242756666657242797465733A20002046726565204D656D6F72AA
:200A0000793A2000417567203235203230323200436F6D70696C65643A2000284561736F42
:200A20006E204C69656D2C2045454C49432052332900207C20417574686F723A20004175E6
:200A40006720323520323032322030383A31363A353100204C61737420557064617465645E
:200A60003A2000312E302E32004D61726C696E0020536F667477617265205265736574003C
:200A8000205761746368646F67205265736574002042726F776E206F75742052657365741F
:200AA000002045787465726E616C20526573657400506F776572557000737461727400228E
:200AC00000656E717565696E672022002200656E717565696E6720220020746F6F206C6F4B
:200AE0006E6720657874727573696F6E2070726576656E7465640020636F6C6420657874F0
:200B0000727573696F6E2070726576656E746564007C3C3E5E2B3D3F2F5B5D3B2C2A225C57
:200B20000045303A20005A3A2000593A2000583A20004D53312C4D53322050696E730A003A
:200B400024F404D9201BC40C5C0E9804C4095F0265077101F405F900FB04B300480487000C
:200B6000C10369005803550003034500BE023A008402310053022A002902250004022000A7
:200B8000E4011C00C8011900AF0117009801140084011300710110006101100051010E0012
:200BA00043010D0036010B002B010B0020010B00150109000C01090003010800FB000800FB
:200BC000F3000800EB000700E4000600DE000600D8000600D2000600CC000500C700050007
:200BE000C2000500BD000400B9000400B5000400B1000400AD000400A9000400A50003003C
:200C0000A20003009F0004009B000300980003009500020093000300900003008D00020004
:200C20008B000300880002008600020084000300810002007F0002007D0002007B0002008D
:200C40007900020077000100760002007400020072000100710002006F0002006D000100EE
:200C60006C0002006A00010069000200670001006600010065000100640002006200010032
:200C800061000100600001005F0002005D0001005C0001005B0001005A0001005900010064
:200CA000580001005700010056000100550001005400010053000000530001005200010087
:200CC00051000100500001004F0001004E0000004E0001004D0001004C0001004B0000009E
:200CE0004B0001004A000100490001004800000048000100470001004600000046000100AD
:200D00004500000045000100440001004300000043000100420000004200010041000000B6
:200D200041000100400001003F0000003F0001003E0000003E0001003D0000003D000100B9
:200D40003C0000003C0000003C0001003B0000003B0001003A0000003A00010039000000B9
:200D60003900010038000000380000003800010037000000370001003600000036000000B5
:200D80003600010035000000350000003500010034000000340000003400010033000000AC
:200DA0003300000033000100320000003200000032000100310000003100000031000100A1
:200DC0003000000030000000300001002F0000002F0000002F0000002F0001002E00000097
:200DE0002E0000002E0001002D0000002D0000002D0000002D0001002C0000002C00000089
:200E00002C0000002C0001002B0000002B0000002B0000002B0001002A0000002A00000078
:200E20002A0000002A00010029000000290000002900000029000000290001002800000067
:200E4000280000002800000028000000280001002700000027000000270000002700000055
:200E6000270001002600000026000000260000002600000026000100250000002500000041
:200E800025000000250000002500000025000100240000002400000024000000240000002D
:200EA000240001002300000023000000230000002300000023000000230000002300010017
:200EC000220000002200000022000000220000002200000022000100210000002100000003
:200EE0002100000021000000210000002100000021000100200000002000000020000000EC
:200F000020000000200000002000000020000000200001001F0000001F0000001F000000D3
:200F20001F0000001F0000001F0000001F0001001E0000001E0000001E0000001E000000BC
:200F400024F4D43050C38E20C2A24017828B7011127A910D816CD90AA861E108C7586607F3
:200F6000615143061E4B5D05C145A7041A411104093D9803713931034036DB02653391024D
:200F8000D4305402802E1D02632CEE01752AC501B028A001102781018F2564012B244B0161
:200FA000E0223401AC211F018D200D01801FFC00841EED00971DDF00B81CD200E61BC60028
:200FC000201BBC00641AB200B219A8000A19A0006A189900D117910040178B00B5168400EF
:200FE00031167E00B31579003A157300C7146F0058146A00EE1366008813630025135E000E
:20100000C7125B006C12570015125400C111510070114F0021114B00D61049008D104700C9
:201020004610440002104200C00F4000800F3E00420F3C00060F3B00CB0E3800930E370020
:201040005C0E3500270E3400F30D3200C10D3100900D3000600D2E00320D2D00050D2C0045
:20106000D90C2B00AE0C2900850C29005C0C2700350C27000E0C2600E80B2400C40B240082
:20108000A00B23007D0B23005A0B2100390B2100180B2000F80A1F00D90A1E00BB0A1E00A4
:2010A0009D0A1D00800A1D00630A1C00470A1B002C0A1B00110A1A00F7091A00DD09190031
:2010C000C4091900AB091900920917007B091800630917004C09160036091600200916008D
:2010E0000A091500F5081500E0081400CC081400B8081400A4081400900813007D081200FC
:201100006B081300580812004608120034081100230811001208110001081100F0071000A2
:20112000E0071000D0071000C0071000B0070F00A107100091070E0083070F0074070F00B3
:2011400065070E0057070E0049070E003B070D002E070E0020070D0013070D0006070D0044
:20116000F9060C00ED060D00E0060C00D4060C00C8060C00BC060C00B0060C00A4060B006D
:2011800099060C008D060B0082060B0077060B006C060B0061060A0057060B004C060A0039
:2011A00042060A0038060A002E060A0024060A001A060A001006090007060A00FD050900B8
:2011C000F4050900EB050900E2050900D9050900D0050900C7050900BE050900B5050800FC
:2011E000AD050800A50509009C050800940508008C050800840508007C0508007405080004
:201200006C050700650508005D050700560508004E050700470507004005080038050700DA
:20122000310507002A050700230507001C050600160507000F050700080506000205070087
:20124000FB040600F5040700EE040600E8040600E2040700DB040600D5040600CF04060015
:20126000C9040600C3040600BD040600B7040600B1040500AC040600A6040600A00405007D
:201280009B04060095040500900406008A04050085040500800406007A04050075040500C5
:2012A000700405006B04050066040500610405005C04050057040500520405004D040500F2
:2012C00048040500430405003E0404003A04050035040500300404002C040500270404000E
:2012E000230405001E0404001A04040016040500110404000D04040009040500040404000F
:2013000000040400FC030400F8030400F4030400F0030400EC030400E8030400E403040004
:20132000E0030400DC030400D8030400D4030400D0030400CC030400C8030300C5030300E6
:20134000656E6473746F7073206869743A205A00205A3A00656E6473746F7073206869747B
:201360003A20590020593A00656E6473746F7073206869743A20580020583A00656E647324
:20138000746F7073206869743A20004572723A204D415854454D50204245440054656D70A8
:2013A000657261747572652068656174656420626564207377697463686564206F66662E5B
:2013C000204D415854454D5020747269676765726564202121004572723A204D494E544592
:2013E0004D50003A204578747275646572207377697463686564206F66662E204D494E5447
:20140000454D50207472696767657265642021004572723A204D415854454D50003A20458E
:2014200078747275646572207377697463686564206F66662E204D415854454D5020747258
:2014400069676765726564202100202D20496E76616C6964206578747275646572206E75AA
:201460006D62657220210070012C0190012701B0012201C0011D01F001180110021301301B
:20148000020E016002090190020401C002FF000003FA004003F5008003F000D003EB0020F1
:2014A00004E6007004E100E004DC004005D700C005D2004006CD00D006C8008007C300304F
:2014C00008BE00F008B900C009B400B00AAF00B00BAA00D00CA500000EA000500F9B00C061
:2014E0001096005012910000148C00C0158700B0178200B0197D00D01B7800001E73004094
:20150000206E0090226900F024640040275F0090295A00E02B5500102E500020304B001038
:20152000324600E033410090353C001037370070383200A0392D00B03A2800A03B23006010
:201540003C1E00103D1900903D1400103E0F00703E0A00C03E0500003F0000504944204155
:2015600075746F74756E652066696E6973686564212050757420746865206C617374204BD3
:20158000702C204B6920616E64204B6420636F6E7374616E74732066726F6D2061626F7620
:2015A0006520696E746F20436F6E66696775726174696F6E2E6800504944204175746F74D4
:2015C000756E65206661696C6564212074696D656F75740020403A006F6B20543A006F6BFA
:2015E00020423A00504944204175746F74756E65206661696C6564212054656D7065726169
:201600007475726520746F6F206869676800204B643A2000204B693A2000204B703A20004C
:2016200020436C61737369632050494420002054753A2000204B753A2000206D61783A206E
:2016400000206D696E3A200020643A200020626961733A20002D2D3A2D2D002D2D2D00530D
:2016600044002059000120000120004E6F2053442063617264005072696E742066726F6D5C
:201680002053440053746F70207072696E7400526573756D65207072696E74005061757349
:2016A00065207072696E7400436F6E74726F6C00507265706172650054756E6500496E660F
:2016C0006F2073637265656E00052E2E004D61696E004D3234004D3233202573004D38343F
:2016E00020582059205A204500526573746F7265206661696C736166650046696C616D658D
:201700006E74004D6F74696F6E0054656D7065726174757265004D61696E0046696C2E20F5
:201720004469612E20310046696C2E204469612E2031004F6666004F6E20004F6666004FC4
:201740006E20004520696E206D6D3300436F6E74726F6C004573746570732F6D6D0045737C
:20176000746570732F6D6D005A73746570732F6D6D005A73746570732F6D6D0059737465DB
:2017800070732F6D6D005973746570732F6D6D005873746570732F6D6D00587374657073B5
:2017A0002F6D6D00412D7265747261637400412D7265747261637400416D6178206500410D
:2017C0006D6178206500416D6178207A00416D6178207A00416D6178207900416D61782035
:2017E0007900416D6178207800416D61782078005654726176206D696E00565472617620C8
:201800006D696E00566D696E00566D696E00566D6178206500566D6178206500566D617872
:20182000207A00566D6178207A00566D6178207900566D6178207900566D617820780056E4
:201840006D617820780056652D6A65726B0056652D6A65726B00567A2D6A65726B00567A09
:201860002D6A65726B005678792D6A65726B005678792D6A65726B00416363656C004163D3
:2018800063656C00436F6E74726F6C00507265686561742041425320636F6E660050726587
:2018A0006865617420504C4120636F6E66005049442D43005049442D43005049442D4400DB
:2018C0005049442D44005049442D49005049442D49005049442D50005049442D500020023E
:2018E00020466163740020022046616374002002204D6178002002204D6178002002204D2B
:20190000696E002002204D696E004F6666004F6E20004F6666004F6E20004175746F746528
:201920006D700046616E2073706565640046616E2073706565640042656400426564004EDA
:201940006F7A7A6C65004E6F7A7A6C6500436F6E74726F6C0042656400426564004E6F7AA3
:201960007A6C65004E6F7A7A6C650046616E2073706565640046616E2073706565640054BA
:20198000656D70657261747572650042656400426564004E6F7A7A6C65004E6F7A7A6C65F3
:2019A0000046616E2073706565640046616E2073706565640054656D70657261747572650D
:2019C000004D6F76652061786973004D38300053776974636820706F776572206F6E004DDD
:2019E00038310053776974636820706F776572206F666600436F6F6C646F776E00507265F8
:201A00006865617420414253005072656865617420504C410053657420686F6D65206F667E
:201A2000667365747300473238004175746F20686F6D65004D38340044697361626C6520E1
:201A40007374657070657273004D61696E004D6F766520302E316D6D004D6F766520316D16
:201A60006D004D6F76652031306D6D0050726570617265004578747275646572004D6F76B3
:201A800065205A004D6F76652059004D6F76652058004D6F76652061786973004578747239
:201AA00075646572005A00590058005072656865617420414253204265640050726568658D
:201AC00061742041425320310050726570617265005072656865617420504C41204265642A
:201AE000005072656865617420504C4120310050726570617265004D363030004368616EA3
:201B000067652066696C616D656E7400466C6F77203000466C6F77203000466C6F770046DB
:201B20006C6F770046616E2073706565640046616E207370656564004265640042656400B1
:201B40004E6F7A7A6C65004E6F7A7A6C65005370656564005370656564004D61696E0043D7
:201B60006172642072656D6F766564004361726420696E736572746564004D3330302053D1
:201B80003639382050323030004D3330302053363539205032303000000021002400270037
:201BA0002A002D003000330001010000040107010A0100002200250028002B002E00310058
:201BC000340002010000050108010B01000020002300260029002C002F0032000001000093
:201BE00003010601090105050505070508080808020202020A0A0808040404040101010150
:201C0000010101010303030303030303040707070C0C0C0C0C0C0C0C02020202060606060F
:201C2000060606060B0B0B0B0B0B0B0B01021020200808102040102040800201020108045F
:201C40000201010204081020408080402010080402018004020180402010080402010804F1
:201C60000201010204081020408001020408102040800000090A02080B0C0D07060304010D
:201C8000000000000000000000000000000000000000000000000000000000000000111023
:201CA0000F000000000000000000000000000000000000000000000002494E46494E495402
:201CC000594E414ECDCCCC3D0AD7233C17B7D13877CC2B329595E6241FB14F0A00002041B7
:201CE0000000C84200401C4620BCBE4CCA1B0E5AAEC59D749427492AE3C069CC442A1124D8
:201D00001FBECFEFD1E2DEBFCDBF00E00CBF15E0A0E0B2E0E0ECF9EB01E00BBF02C00790E6
:201D20000D92A830B107D9F71BBE13E1A8E0B5E001C01D92AB38B107E1F71CE1CCEFDCE162
:201D400004C02297FE010E9486DCC43FD107C9F70E9481D30C94D4DC0C940000A0E0B0E072
:201D6000E4EBFEE00C94A3DCEC015B016115710519F0FB0191838083F9908F2D90E00E94EF
:201D80008ADC892BC9F7FDE2FF1621F4F990EE24E39405C02BE2F21609F4F990EE248E014D
:201DA00001501040C80169EB7CE143E050E072D2892BF9F48E010E5F1F4FC8016CEB7CE1E9
:201DC00045E050E067D2892B19F48E01095F1F4FA114B10419F0F50111830083E0FC04C02F
:201DE00070E090E080E813C070E090E080E86FEF07C1C80161EC7CE143E050E04BD2892B03
:201E000069F4A114B10429F470E090E080EC6FE7F7C02296F501D183C083F6CF8824992432
:201E200040E050E060E070E0EF2DE053EA30A0F5F2E0EF2A8E2D90E09C0128703070E2FEF9
:201E400006C0232B79F50894811C911C2BC0232B19F0089481089108DB01CA0112E0880FEA
:201E6000991FAA1FBB1F1A95D1F7480F591F6A1F7B1F440F551F661F771F4E0F511D611D73
:201E8000711D483929E9520729E9620729E1720748F084E0E82A06C0EE3F31F4E3FC39C02C
:201EA00098E0E92AF990C0CFE53311F0E53189F529912D3219F4E0E1EE2A05C02B3219F0A8
:201EC00081E090E003C0299182E090E0E22FE053EA3018F0C81BD90B1CC020E030E0FCE0ED
:201EE00020383F075CF4C901880F991F880F991F280F391F220F331F2E0F311DE991E05342
:201F0000EA3068F3E4FE03C0309521953F4F820E931ECE2CDD24E1FE07C0A114B10421F041
:201F20002197F501D183C083CB01BA010E94EFD87B018C01F3E0CF22DD2423E0C216D104EE
:201F400021F417FB109517F9109557016801C801B70120E030E040E050E00E944FD88823EA
:201F600009F44AC097FE0DC028EDE22E2CE1F22E9094819491089394C0E2D0E000E010E08B
:201F800012C090EFE92E9CE1F92EF6CFF7012591359145915491C601B5010E942FDB5B01BC
:201FA0006C018C1A9D0A8C169D0684F7D595C7950F5F1F4F0630110529F08CEF9FEFE80EA1
:201FC000F91EF1CFC501D6017C018D018C2D880F8D2D881F8F3F51F0C601B50120E030E035
:201FE00040E050E00E944FD8882331F482E290E090938A13809389137E2D9F2D802F612FFF
:20200000272F392F482F562FB901CA01CDB7DEB7ECE00C94BFDC2F923F925F926F927F92CC
:202020008F929F92AF92BF92CF92DF92EF92FF920F931F93CF93DF938C011B01EA016115A6
:20204000710519F0FB0191838083209749F0CE010297839728F020E030E040E050E0F6C04E
:20206000F801A1908F018A2D90E00E948ADC892BB9F7FDE2AF1631F4F801A1908F01552417
:20208000539407C0FBE2AF1619F4F801A1908F015524209719F0C031D105C1F4F0E3AF16DC
:2020A00079F4F8018081883711F0883549F4F801A1800E5F1F4FF2E05F2AC0E1D0E006C098
:2020C000209721F480E3A816E9F427C0C830D10531F1C930D10524F4C230D10531F50CC0BE
:2020E000CA30D10589F0C031D105F9F4C12CD12CE12CB8E0FB2E28C0C12CD12CE12CA0E4C8
:20210000FA2E22C0CAE0D0E0FCECCF2EFCECDF2EFCECEF2EFCE0FF2E17C0C8E0D0E0C12C57
:20212000D12CE12CE0E1FE2E0FC09E01442737FD4095542F60E070E080E090E80E9447DC16
:20214000C901DA016C017D0120E030E040E050E060E03E01882477FC8094982C70EDB72ED7
:20216000BA0CE9E0EB1570F48A2D81548A3118F499ECB92E06C08A2D81568A3150F589EAE6
:20218000B82EBA0C8B2D90E08C179D0714F56F3FE1F0C216D306E406F506B0F0CA01B901E1
:2021A000A40193010E9401DC9B01AC012B0D311D411D511D2130F0E03F07F0E04F07F0E867
:2021C0005F0710F461E001C06FEFF801A1908F01C5CF2114310481F0662331F001501040C1
:2021E000F1011183008308C051FE1AC002501040F1011183008314C067FF12C050FC05C01D
:202200002FEF3FEF4FEF5FE704C020E030E040E050E882E290E090938A138093891316C0A9
:2022200050FE08C050954095309521953F4F4F4F5F4F0CC057FF0AC082E290E090938A13F9
:20224000809389132FEF3FEF4FEF5FE7B901CA01DF91CF911F910F91FF90EF90DF90CF907E
:20226000BF90AF909F908F907F906F905F903F902F900895FB01DC0105900D920020E1F755
:202280000895FC0105900020E9F7809590958E0F9F1F0895FB01DC014150504088F08D914D
:2022A00081341CF08B350CF4805E659161341CF06B350CF4605E861B611171F3990B089512
:2022C000881BFCCFFB01DC014150504048F005900D920020C9F701C01D9241505040E0F7E2
:2022E0000895FB0155915523A9F0BF01DC014D9145174111E1F759F4CD010590002049F044
:202300004D9140154111C9F3FB014111EFCF81E090E001970895FB01DC0104C08D9101901E
:20232000801921F441505040C8F7881B990B0895FB01DC0102C001900D9241505040D8F770
:202340000895FB01DC018D9181341CF08B350CF4805E619161341CF06B350CF4605E861BF8
:20236000611189F3990B0895FB01DC010D900020E9F7119701900D920020E1F70895FC014E
:202380008191861721F08823D9F7992708953197CF010895FB01DC018D910190801901103E
:2023A000D9F3990B0895FB01DC0101900D920020E1F70895FB01DC014150504030F08D913A
:2023C0000190801919F40020B9F7881B990B0895FB01DC014150504048F001900D92002090
:2023E000C9F701C01D9241505040E0F70895AEE0B0E0EDEFF1E10C94ABDC0E891F898EE078
:202400008C831A8309838FEF9FE79E838D839E01265E3F4FCE010196688D798DA9010AD0B9
:202420002F813885020F131FF80110822E96E4E00C94C7DCABE0B0E0E0E2F2E10C949DDCCD
:202440003C012B015A01FC0117821682838181FD03C06FEF7FEFB9C19AE0892E1E01089413
:20246000211C311CF3012381F20123FD859123FF81912F01882309F4A5C1853239F423FD9B
:20248000859123FF81912F01853221F490E0B301B7D1E8CF982FFF24EE249924FFE1FF15E6
:2024A000D0F09B3269F09C3228F4903259F0933291F40EC09D3249F0903369F441E024C0FC
:2024C00052E0F52A84E0F82A28C098E0F92A25C0E0E1FE2A22C0F7FC29C0892F80538A30D1
:2024E00070F4F6FE05C0989C902C1124980E15C0E89CE02C1124E80EF0E2FF2A0EC09E32CB
:2025000029F4F6FC5FC140E4F42A07C09C3619F450E8F52A02C0983649F4F20123FD959147
:2025200023FF91912F01992309F0B8CF892F8554833018F08052833038F444E050E0A40EE8
:20254000B51E5FE359830FC0933631F0933779F0933509F052C01FC0F5018081898342E0C7
:2025600050E0A40EB51E610101E010E011C0F501C080D180F6FC03C06FEF7FEF02C0692D42
:2025800070E042E050E0A40EB51EC6012ED18C015FE7F52213C0F501C080D180F6FC03C055
:2025A0006FEF7FEF02C0692D70E042E050E0A40EB51EC6010FD18C0150E8F52AF3FE06C08E
:2025C00018C080E290E0B3011BD1EA948E2D90E008171907B0F30DC0F601F7FC8591F7FE64
:2025E00081916F0190E0B3010BD1E110EA94015010400115110581F7E2C0943611F0993669
:2026000061F5F7FE08C0F501208131814281538184E090E00AC0F501808191819C01442718
:2026200037FD4095542F82E090E0A80EB91E9FE6F92257FF09C050954095309521953F4F2D
:202640004F4F5F4FE0E8FE2ACA01B901A1012AE030E002D1D82ED2183FC0953729F41F2D06
:202660001F7E2AE030E01DC01F2D197F9F3661F0903720F4983509F0A5C00FC0903739F0F7
:20268000983709F09FC004C028E030E00AC0106114FD146020E130E004C014FD166020E11A
:2026A00032E017FF08C0F501608171818281938144E050E008C0F50180819181BC0180E008
:2026C00090E042E050E0A40EB51EA101C5D0D82ED2188FE7F82EF122F6FE0BC05EEFF522BA
:2026E000D91438F4F4FE07C0F2FC05C08FEEF82202C01D2D01C0192DF4FE0DC0FE01ED0DF3
:20270000F11D8081803319F499EEF92208C01F5FF2FE05C003C08F2D867809F01F5F0F2D1D
:20272000F3FC13C0F0FE0EC01E1510F09D2C0AC09D2C9E0C911A1E2D05C080E290E0B301A1
:202740005FD01F5F1E15C8F304C01E1510F4E11A01C0EE2404FF0EC080E390E0B30150D09D
:2027600002FF1BC001FD03C088E790E00EC088E590E00BC0802F867881F001FF02C08BE21A
:2027800001C080E2F7FC8DE290E0B30139D005C080E390E0B30134D09A94D914C8F3DA94F3
:2027A000F101ED0DF11D808190E0B30129D0DD20B1F705C080E290E0B30122D0EA94EE2093
:2027C000C9F750CEF30166817781CB012B96E2E10C94B9DCFC010590615070400110D8F7F0
:2027E000809590958E0F9F1F0895FC016150704001900110D8F7809590958E0F9F1F0895A6
:202800000F931F93CF93DF938C01EB018B8181FF1BC082FF0DC02E813F818C819D81281789
:20282000390764F4E881F9810193F983E88306C0E885F985802F1995892B31F48E819F818C
:2028400001969F838E8302C00FEF1FEFC801DF91CF911F910F910895FA01AA27283051F1F4
:20286000203181F1E8946F936E7F6E5F7F4F8F4F9F4FAF4FB1E03ED0B4E03CD0670F781F79
:20288000891F9A1FA11D680F791F8A1F911DA11D6A0F711D811D911DA11D20D009F46894FB
:2028A0003F912AE0269F11243019305D3193DEF6CF010895462F4770405D4193B3E00FD05A
:2028C000C9F7F6CF462F4F70405D4A3318F0495D31FD4052419302D0A9F7EACFB4E0A695E9
:2028E0009795879577956795BA95C9F700976105710508959B01AC010A2E06945795479586
:2029000037952795BA95C9F7620F731F841F951FA01D0895FC01128213820895FC018381A8
:20292000882311F081E082830895FC018281811112820895CF93DF93DC01FC01EB55FE4FEA
:20294000808191810097C9F1019791838083ED01CC5ADF4FFD01ED58FF4F8BE101900992F9
:202960008150E1F7FD01EE5AFF4FAF58BF4F8D919C911197A157B04091838083FD01ED58D0
:20298000FF4F20E030E0AD014B555E4F10C02F5F3F4FEF01DF015F968BE10D9009928150B8
:2029A000E1F7858D968D329791838083B196DA018D919C912817390750F3DF91CF9108958E
:2029C000FC0183E994E0918380838781882321F0CF0104960C94EC680895CF92DF92EF92F1
:2029E000FF920F931F93DF93CF93CDB7DEB76F970FB6F894DEBF0FBECDBF8C016B01095A5C
:202A00001F4FD8018C9107551040882321F42FE2E22EF12C03C090E5E92EF12CE00EF11E3F
:202A200083E994E09A8389831C821B8218861D82B7016C5F7F4FCE010596A60121E00E9410
:202A4000D86F882391F5E2EFF4E0949108C08091C00085FFFCCF9093C600319694919923BB
:202A6000B1F7EBE3F1E0949108C08091C00085FFFCCF9093C600319694919923B1F709C000
:202A80008091C00085FFFCCF0894C11CD11C9093C600F6019081992399F78091C00085FF1E
:202AA000FCCF8AE08093C6005AC0F801EB55FE4F208131812A30310508F040C02F5F3F4F71
:202AC0003183208321503040F90185E0EE0FFF1F8A95E1F7E21BF30BED58FF4FE00FF11FC0
:202AE00013C0AF01415E5F4FBF018BE1DB010D90BD01DA010D92AD018150C1F792918291BC
:202B00003296968F858F7F9721503040BFEF2E3F3B0739F7D801AD58BF4FF70134968BE116
:202B200001900D928150E1F70F581F4FF70182819381D8018D939C9301571040D801AC5A29
:202B4000BF4FFE0135968BE101900D928150E1F70E5A1F4F8B819C81F80191838083CE017A
:202B600001962EDF6F960FB6F894DEBF0FBECDBFCF91DF911F910F91FF90EF90DF90CF9069
:202B80000895EF92FF920F931F938C013EECE32E31E0F32EE80EF91EC7010E949F68C701F2
:202BA0000E94EC68F801108211821F910F91FF90EF900895CF92DF92EF92FF920F931F93CE
:202BC000CF93DF937C016B01DB010D900020E9F78D0101501040061B170BEEECF1E0EE0EA6
:202BE000FF1ED7011C92E2E3FEEFEE0EFF1ECB016EE470E0C4DBEC01009731F4F8013197F0
:202C0000EC0DFD1D86010CC060E270E0B8DB8C010F5F1F4FCE016AE270E0B1DBFC01319704
:202C20008DE081838AE082831382C70186539E4FB8010E94E9708EEC91E0E80EF91ED7010D
:202C40008C91882319F1EBEEF4E0949108C08091C00085FFFCCF9093C60031969491992357
:202C6000B1F7E5E6F1E0949108C08091C00085FFFCCF9093C600319694919923B1F78091B9
:202C8000C00085FFFCCF8AE08093C600DF91CF911F910F91FF90EF90DF90CF900895CF93E7
:202CA000DF93EC018B81882309F43BC0EDE8F1E0949108C08091C00085FFFCCF9093C6006A
:202CC000319694919923B1F7CD57DD4F488159816A817B81C358D2408CE895E02AE030E09A
:202CE0000E942D28EBE8F1E0949108C08091C00085FFFCCF9093C600319694919923B1F7F3
:202D0000C558DD4F488159816A817B818CE895E02AE030E00E942D288091C00085FFFCCFC6
:202D200012C0EBE7F1E0949108C08091C00085FFFCCF9093C600319694919923B1F78091C7
:202D4000C00085FFFCCF8AE08093C600DF91CF9108952F923F924F925F926F927F928F921D
:202D60009F92AF92BF92CF92DF92EF92FF920F931F93DF93CF93CDB7DEB7AC970FB6F894D7
:202D8000DEBF0FBECDBF5C014B01FC018381882309F43BC1C50182539E4F0E94EC68F5017B
:202DA00012821A8A1D8A198A188A83E994E09F878E875EE4C52ED12CCA0CDB1C2FE230E0B4
:202DC000A20EB31EF601B182A08221ED3FEFA20EB31EF40180818F3209F08DC0C4016FE256
:202DE00070E0CDDA7C010894E11CF11C3E010894611C711C260142E1242E312C2C0E3D1E46
:202E000075C0C7016FE270E0BADA6C01009709F480C0E816F90608F07CC08C010E191F0932
:202E2000C301B701A801D4DA060D171DF8011082F30107C08091C00085FFFCCF3196909328
:202E4000C60090819923B1F78091C00085FFFCCFFAE0F093C600F201608171816115710542
:202E600019F460E070E002C06C5F7F4FC101A30121E00E94D86F882371F5E9ECF1E094912E
:202E800008C08091C00085FFFCCF9093C600319694919923B1F7FE01319607C08091C000B3
:202EA00085FFFCCF31969093C60090819923B1F7E7ECF1E0949108C08091C00085FFFCCFED
:202EC0009093C600319694919923B1F78091C00085FFFCCF94C02EE030E02C0F3D1FF2019D
:202EE0003183208376010894E11CF11CE114F10409F087CF0BC080E590E0A80EB91EF60101
:202F0000B182A08220EB3FEFA20EB31ED82C092D02C0DE2C0F2D8EE490E0A80EB91EF501FB
:202F20008081918122EB3FEFA20EB31E009719F480E090E001C004966D2D702F0E94A47004
:202F4000882371F1E9EBF1E0949108C08091C00085FFFCCF9093C600319694919923B1F779
:202F60008D2D902F9C01F90107C08091C00085FFFCCF31969093C60090819923B1F7809124
:202F8000C00085FFFCCF8AE08093C60083E892E0A80EB91EF501108211821282138232C03F
:202FA000E1EAF1E0949108C08091C00085FFFCCF9093C600319694919923B1F78D2D902FB6
:202FC0009C01F90107C08091C00085FFFCCF31969093C60090819923B1F7EFE9F1E0949180
:202FE00008C08091C00085FFFCCF9093C600319694919923B1F78091C00085FFFCCF8AE026
:203000008093C600CE010E96DBDCAC960FB6F894DEBF0FBECDBFCF91DF911F910F91FF9075
:20302000EF90DF90CF90BF90AF909F908F907F906F905F904F903F902F900895BF92CF92AE
:20304000DF92EF92FF920F931F93CF93DF938C01EB018FE28993EE24E394FF2475EAC72EBF
:2030600071E0D72EC00ED11E6FE1B62E14C0FB9CC00111248D589F4F800F911FBE010E9435
:20308000FC6802C02196E3948881882319F08CE88E15C0F7F3942F2D30E0F6018081918154
:2030A0002817390720F3E7FC07C0C80182539E4FBE010E94FC6801C01882DF91CF911F91A9
:2030C0000F91FF90EF90DF90CF90BF900895EF92FF920F931F93CF93DF938C01FC0113822F
:2030E00086A9882321F0C801C3960E94EC68E7EAEE2EE1E0FE2EE00EF11EC70160E045E3C6
:203100000E949B66882309F5E2EFF4E0949108C08091C00085FFFCCF9093C60031969491DC
:203120009923B1F7E2E1F3E0949108C08091C00085FFFCCF9093C600319694919923B1F74F
:203140008091C00085FFFCCF7DC0E801C455DE4FCE01B70141E00E947A71882341F5CE01FE
:20316000B70140E00E947A71882309F5EBEEF4E0949108C08091C00085FFFCCF9093C6009E
:20318000319694919923B1F7EFEFF2E0949108C08091C00085FFFCCF9093C600319694914D
:2031A0009923B1F78091C00085FFFCCF4BC0C801C396BE010E94DE6B882309F5EBEEF4E05E
:2031C000949108C08091C00085FFFCCF9093C600319694919923B1F7EFEEF2E0949108C00D
:2031E0008091C00085FFFCCF9093C600319694919923B1F78091C00085FFFCCF23C081E012
:20320000F8018383E2EFF4E0949108C08091C00085FFFCCF9093C600319694919923B1F7C4
:20322000E4EEF2E0949108C08091C00085FFFCCF9093C600319694919923B1F78091C000D3
:2032400085FFFCCF8AE08093C600D801AC5ABF4FF801F3968BE101900D928150E1F7F8012F
:2032600081A992A90E5A1F4FF8019183808302551040C8018F96025B1F4FF8019183808393
:20328000DF91CF911F910F91FF90EF9008952F923F924F925F926F927F929F92AF92BF922A
:2032A000CF92DF92EF92FF920F931F93DF93CF93CDB7DEB7CC55D0400FB6F894DEBF0FBEFD
:2032C000CDBF6C01662311F527E832E0C20ED31ED6018C91E9E7FDEFCE0EDF1E882309F453
:2032E000E2C02FE732E0C20ED31ED601ED90FD900D911C91E1E8FDEFCE0EDF1E0E94BBD05C
:20330000E616F7060807190708F4CDC027E832E0C20ED31ED6011C92E9E7FDEFCE0EDF1E00
:20332000D60113968C91882339F4C601D0DEF6018381882309F4B7C000D000D0EDB7FEB790
:2033400031967E010894E11CF11CADB7BEB71296FC92EE9211978CE591E093838283D60176
:203360009D968D919C919E979583848340D88701EDB7FEB736960FB6F894FEBF0FBEEDBF2F
:2033800057010AC0D8018C91992787FD90950E9492DCF80181938F01F50101900020E9F778
:2033A0003197EA19FB09802F8E198E175CF313E3A12EB12CAC0CBD1CC50140E050E060E06B
:2033C00070E00E94D5679924BDE3EB2EF12CEC0EFD1E2E010894411C511CAFE16A2E712CBD
:2033E0006C0E7D1EF5E52F2EF1E03F2E42C0D8018C9190E00E9492DCF80181938F01D70156
:203400000D900020E9F71197AE19BF09802F8E198A176CF327968FAD27978E3751F1C701FC
:20342000B20145E050E00E94DA11009711F500D000D0EDB7FEB73196ADB7BEB712967C920B
:203440006E92119733822282558244820E94F711EDB7FEB736960FB6F894FEBF0FBEEDBF78
:20346000C3010E948A4C81E591E00E94114C99249394C501B70140E050E00E94FD6A181651
:2034800014F48701BCCF992041F48FEF9FEFD6019E969C938E939D9706C0F60185A596A566
:2034A000019696A785A7C45ADF4F0FB6F894DEBF0FBECDBFCF91DF911F910F91FF90EF904B
:2034C000DF90CF90BF90AF909F907F906F905F904F903F902F9008952F923F924F925F92F6
:2034E0006F927F928F929F92AF92BF92CF92DF92EF92FF920F931F93DF93CF93CDB7DEB7B1
:20350000CF58D0400FB6F894DEBF0FBECDBF8C012B016A01C757DF4F39832883C958D04025
:2035200084E090E0C80ED91EF8017196C957DF4FF983E883C758D04044E0642E712C600EC5
:20354000711ECA57DF4F1882C658D04036E6E32EF12CEC0EFD1EC7010B96C557DF4F998397
:203560008883CB58D04028E8822E22E0922E800E911E9AE8A92E92E0B92EA00EB11E87E4B4
:20358000282E312C2C0E3D1EF1013496C357DF4FF983E883CD58D040E2EFF4E08491C157F1
:2035A000DF4F8883CF58D04053C1F7018385482F50E0BA01687170706031710509F056C155
:2035C000F401208131812130310509F44FC12230310509F44BC1F701DE011196908190322D
:2035E00039F08E2F8E19883011F48EE28D939D933196C557DF4F88819981CB58D040E8175B
:20360000F90761F71C921E86F2018081882331F4CE010E9660E072E00E94B411CE010E965D
:20362000B2010E94B411CE010E96BE016F5F7F4F0E94B411CE010E9660E072E00E94B411CF
:203640001CA61FA61BA61AA683E994E099A788A7CE018C96B601AE014F5F5F4F21E00E94BD
:20366000D86F882309F03FC0F40180819181892BD1F5C157DF4F9881CF58D040E2EFF4E0A3
:2036800008C08091C00085FFFCCF9093C600319694919923B1F7E2E0F2E007C08091C000DD
:2036A00085FFFCCF31969093C60090819923B1F78091C00085FFFCCFFAE0F093C600FE0154
:2036C000319607C08091C00085FFFCCF31969093C60090819923B1F78091C00085FFFCCFF7
:2036E0008AE08093C600C357DF4FA881B981CD58D040FE01BC968BE101900D928150E1F711
:203700008AA59BA5F1019383828383E994E091838083C801BE01625F7F4FA10120E030E06D
:20372000DBDEC1014DD9CE0188964AD991C09E3209F48EC09F3509F48BC0F80191899E326D
:2037400009F486C09F3509F483C043FD81C080E06031710509F481E0F80184A7882349F4C0
:20376000F7018085873409F073C081858E3709F46FC0D301F7018081803241F08E2F8E195A
:20378000883011F48EE28D9380818D933196C557DF4F88819981CB58D040E817F90759F705
:2037A0001C92F40180819181009701F5F20107C08091C00085FFFCCF31969093C60090812B
:2037C0009923B1F7F30107C08091C00085FFFCCF31969093C60090819923B1F78091C000B4
:2037E00085FFFCCFFAE0F093C60032C08130910539F4F5018081918101969183808328C052
:20380000029731F5C757DF4F88819981C958D040009731F0B3010E94A111892B71F42BC085
:20382000CA57DF4F9881C658D040292F30E0F5018081918128173907F1F0CA57DF4FF88159
:20384000C658D040FF5FCA57DF4FF883C658D040C601B701C957DF4F48815981C758D04045
:203860000E94FD6A18160CF4A0CE05C0F7019081992309F05CCFC157DF4F0FB6F894DEBFC1
:203880000FBECDBFCF91DF911F910F91FF90EF90DF90CF90BF90AF909F908F907F906F90E9
:2038A0005F904F903F902F900895EF92FF920F931F93DF93CF93CDB7DEB76F970FB6F89465
:2038C000DEBF0FBECDBF7C018C01025B1F4F805B9F4FF8019183808328E832E0E20EF31E21
:2038E00021E030E0F701219331937F011182108226E73DEFE20EF31E049640E050E060E03E
:2039000070E00E94D567F80120813181DE011596F90134968BE101900D928150E1F7F901A0
:20392000828193819C838B8383E994E09A838983C70165E172E08E010F5F1F4FA80120E0C6
:2039400030E0CADDC8013CD8F701E657FD4F808191816F960FB6F894DEBF0FBECDBFCF9193
:20396000DF911F910F91FF90EF900895CF92DF92EF92FF920F931F93DF93CF93CDB7DEB7B7
:203980006F970FB6F894DEBF0FBECDBF7C016A018C01025B1F4F805B9F4FF80191838083C1
:2039A00028E832E0E20EF31E22E030E0F701219331937F017183608326E73DEFE20EF31ED1
:2039C000049640E050E060E070E00E94D567F80120813181DE011596F90134968BE10190F8
:2039E0000D928150E1F7F901828193819C838B8383E994E09A838983C70165E172E08E0149
:203A00000F5F1F4FA801960167DDC8010E94E0146F960FB6F894DEBF0FBECDBFCF91DF91CB
:203A20001F910F91FF90EF90DF90CF9008952F923F924F925F926F927F928F929F92AF92B4
:203A4000BF92CF92DF92EF92FF920F931F93DF93CF93CDB7DEB7AD970FB6F894DEBF0FBEF1
:203A6000CDBF7C013B014DA7DC0113968C91882309F450C3E1EDF1E0EE0EFF1ED7018C9102
:203A8000EFE2FEEFEE0EFF1E882309F418C1222309F0E0C029EE31E0E20EF31ED7018C91D2
:203AA000E7E1FEEFEE0EFF1E882371F1EBEEF4E0949108C08091C00085FFFCCF9093C60088
:203AC000319694919923B1F7E1EAF2E0949108C08091C00085FFFCCF9093C6003196949117
:203AE0009923B1F78CE895E061E070E04AE050E00E947C288091C00085FFFCCF8AE08093AB
:203B0000C6000E94DF2A06C3E2EFF4E0949108C08091C00085FFFCCF9093C60031969491E4
:203B20009923B1F7E8E8F2E0949108C08091C00085FFFCCF9093C600319694919923B1F739
:203B4000F30107C08091C00085FFFCCF31969093C60090819923B1F7EDE7F2E0949108C0D2
:203B60008091C00085FFFCCF9093C600319694919923B1F7C7012EEE31E0E20EF31EB7013E
:203B80005DDA4BEF5FEFE40EF51ED7019C91E7E1FEEFEE0EFF1E8DE8989FF0011124E25189
:203BA000FE4FEE0DFF1D07C08091C00085FFFCCF31969093C60090819923B1F7E7E7F2E0F5
:203BC000949108C08091C00085FFFCCF9093C600319694919923B1F723E832E0E20EF31E81
:203BE000D7014D915D916D917C91EDE7FDEFEE0EFF1E8CE895E02AE030E00E942D28809132
:203C0000C00085FFFCCF8AE08093C600A70147515E4FDA012C91E22FF0E0EE0FFF1FEE0FD4
:203C2000FF1FEE0DFF1DE651FE4F83E892E0E80EF91ED701AD90BD90CD90DC908DE79DEFB6
:203C4000E80EF91EA082B182C282D3822F5FDA012C932FC0E2EFF4E0949108C08091C000EF
:203C600085FFFCCF9093C600319694919923B1F7E6E6F2E0949108C08091C00085FFFCCF11
:203C80009093C600319694919923B1F7F30107C08091C00085FFFCCF31969093C60090814F
:203CA0009923B1F78091C00085FFFCCF8AE08093C600C70182539E4F0E94EC6839C0E9EEED
:203CC000F1E0EE0EFF1ED7011C92E7E1FEEFEE0EFF1EE2EFF4E0949108C08091C00085FFBF
:203CE000FCCF9093C600319694919923B1F7E5E5F2E0949108C08091C00085FFFCCF9093F4
:203D0000C600319694919923B1F7F30107C08091C00085FFFCCF31969093C6009081992335
:203D2000B1F78091C00085FFFCCF8AE08093C600D70112961C921A8A1D8A198A188A83E94E
:203D400094E09F878E876EE4A62EB12CAE0CBF1CEFE2F0E0EE0EFF1ED501ED92FC92E1EDB1
:203D6000FFEFEE0EFF1ED3018C918F3209F090C0C3016FE270E00E94BF116C010894C11C84
:203D8000D11C4E010894811C911C250152E1252E312C2C0E3D1E77C0C6016FE270E00E9422
:203DA000BF115C01009709F480C0C816D90608F07CC08C010C191D09C401B601A8010E9472
:203DC000E811080D191DF8011082F40107C08091C00085FFFCCF31969093C60090819923BB
:203DE000B1F78091C00085FFFCCFFAE0F093C600D2016D917C916115710519F460E070E071
:203E000002C06C5F7F4FC101A40121E00E94D86F882371F5E1E4F2E0949108C08091C00090
:203E200085FFFCCF9093C600319694919923B1F7FE01319607C08091C00085FFFCCF319686
:203E40009093C60090819923B1F7EFE3F2E0949108C08091C00085FFFCCF9093C6003196A3
:203E600094919923B1F78091C00085FFFCCF23C12EE030E02C0F3D1FF20131832083650150
:203E80000894C11CD11CC114D10409F085CF0BC040E550E0E40EF51ED501ED92FC92E0EBF2
:203EA000FFEFEE0EFF1E830101C08601F701E25BFF4F2DA5222309F4BFC0608171816115D0
:203EC000710519F460E070E002C06C5F7F4FC70182539E4FA80121E00E94D86F882309F4AF
:203EE0007EC04FED51E0E40EF51ED7014D915D916D917C91ECE9F0E0EE0EFF1ED7014D93ED
:203F00005D936D937C931397E5E8FDEFEE0EFF1EE1E3F2E0949108C08091C00085FFFCCF83
:203F20009093C600319694919923B1F7F80107C08091C00085FFFCCF31969093C6009081A7
:203F40009923B1F7E9E2F2E0949108C08091C00085FFFCCF9093C600319694919923B1F71A
:203F60008CE895E02AE030E00E942D288091C00085FFFCCF8AE08093C60023E832E0E20ED7
:203F8000F31ED7011D921D921D921C921397EDE7FDEFEE0EFF1EEBE1F2E0949108C080915E
:203FA000C00085FFFCCF9093C600319694919923B1F78091C00085FFFCCF8AE08093C60056
:203FC000C70160E070E0A801D1DCD70151968C91882309F498C087010F5E1F4F94C0E7E0D9
:203FE000F2E0949108C08091C00085FFFCCF9093C600319694919923B1F7F80107C08091D8
:20400000C00085FFFCCF31969093C60090819923B1F7E5E0F2E0949108C08091C00085FF93
:20402000FCCF9093C600319694919923B1F78091C00085FFFCCF3FC060817181611571059E
:2040400019F460E070E002C06C5F7F4FC70182539E4FA80126E50E94D86F882381F5E1EF50
:20406000F1E0949108C08091C00085FFFCCF9093C600319694919923B1F7F80107C0809158
:20408000C00085FFFCCF31969093C60090819923B1F7EFEEF1E0949108C08091C00085FFFC
:2040A000FCCF9093C600319694919923B1F78091C00085FFFCCF8AE08093C60027C081E051
:2040C000F7018083EDEDF1E0949108C08091C00085FFFCCF9093C600319694919923B1F7F4
:2040E000F30107C08091C00085FFFCCF31969093C60090819923B1F78091C00085FFFCCFA0
:204100008AE08093C600C8010E9432C1CE010E960E94E014AD960FB6F894DEBF0FBECDBF6B
:20412000CF91DF911F910F91FF90EF90DF90CF90BF90AF909F908F907F906F905F904F90CB
:204140003F902F900895EF92FF920F931F93CF93DF93EC010E94CF768E0107511E4FD801F9
:204160008C91BEECEB2EB1E0FB2EEC0EFD1E882399F1C7010E94EC68F8016081615060832F
:204180008DE8689FB001112462517E4F6C0F7D1FCE0141E021E04BDCD801EC91F0E0EE0FEB
:2041A000FF1FEE0FFF1FEC0FFD1FE651FE4F4081518162817381CD57DD4F488359836A83DD
:2041C0007B83C358D240C7010E94D5678B81882389F181E08A832EC00E94AD76C7010E9452
:2041E000EC681A828FE291E00E94114C80919C0A882301F110929C0A80915108C82FD0E041
:20420000CC0FDD1FCE51DE4E68817981882777FD8095982F0E94F1D82091E3033091E403F0
:204220004091E5035091E6030E945DDA181614F419821882DF91CF911F910F91FF90EF9089
:204240000895FC0181E08183CF0140E021E0EFCBEF92FF920F931F93DF93CF93CDB7DEB761
:204260006F970FB6F894DEBF0FBECDBF7C0188E892E0E80EF91EF7011182108288E79DEF6D
:20428000E80EF91E87010D5C1F4FC80140E050E060E070E00E94D567DE011596F8018BE13C
:2042A00001900D928150E1F7F70181A992A99C838B8383E994E09A838983C70165E172E032
:2042C0008E010F5F1F4FA80120E030E005D9C8010E94E0146F960FB6F894DEBF0FBECDBF31
:2042E000CF91DF911F910F91FF90EF9008950F931F93CF93DF93DC01D3961C92D397D69601
:204300001C92D697D2961C921E92D19783E994E0D0969C938E939F97AC5ABF4F1C9213961D
:204320001C92A755B040FD01E05BFF4FAE5ABF4F11961C921E92A255B04091838083ED0155
:20434000C159DF4FFE0120E030E0482F148217821382128240839183215E3F4F7F9681E0DD
:204360002633380799F7A855BE4F89E18C9313961C9258961C921B961C9213961C92A15DDB
:20438000B140FD01E653FE4FA453BE4F11961C921E9240839183A155BF4F1D921D921D92B7
:2043A0001C92139718961D921D921D921C921397A358B24012961C92129713961C921397A5
:2043C0001C9211961C9211978D0101581D4FF8011082118212821382AB55BE4F11961C9236
:2043E0001E92AC5BBF4F1C92FE01C90111920197E9F7A256BF4F81E08C93A758B2409E96BB
:204400001C921E929D970E94BBD068577C4E8F4F9F4FF8016083718382839383DF91CF91CD
:204420001F910F910895DF93CF93CDB7DEB7E0970FB6F894DEBF0FBECDBFDE011196E3E497
:20444000F4E080E101900D928150E1F7DE015196E3E3F4E080E101900D928150E1F7DE01D5
:204460009196E3E2F4E080E101900D928150E1F789819A81AB81BC818093400A9093410AE9
:20448000A093420AB093430A89899A89AB89BC898093300A9093310AA093320AB093330AC5
:2044A00089A19AA1ABA1BCA18093500A9093510AA093520AB093530A8D819E81AF81B8853A
:2044C0008093440A9093450AA093460AB093470A8D899E89AF89B88D8093340A9093350A85
:2044E000A093360AB093370A8DA19EA1AFA1B8A58093540A9093550AA093560AB093570A81
:2045000089859A85AB85BC858093480A9093490AA0934A0AB0934B0A898D9A8DAB8DBC8D45
:204520008093380A9093390AA0933A0AB0933B0A89A59AA5ABA5BCA58093580A9093590AA8
:20454000A0935A0AB0935B0A8D859E85AF85B88980934C0A90934D0AA0934E0AB0934F0A68
:204560008D8D9E8DAF8DB8A180933C0A90933D0AA0933E0AB0933F0A8DA59EA5AFA5B8A96D
:2045800080935C0A90935D0AA0935E0AB0935F0A0E94AA5380E090E8ABE3B5E48093640AB2
:2045A0009093650AA093660AB093670A8093680A9093690AA0936A0AB0936B0A20E030E088
:2045C00040E050E02093600A3093610A4093620A5093630A80E29EE4A0E0B0E080932C0A74
:2045E00090932D0AA0932E0AB0932F0A2093780A3093790A40937A0A50937B0A80E090E070
:20460000A0EAB1E480936C0A90936D0AA0936E0AB0936F0A8DEC9CECACECBEE38093700A2A
:204620009093710AA093720AB093730A80E090E0A0EAB0E48093740A9093750AA093760A99
:20464000B093770A20933A0830933B0840933C0850933D0820933608309337084093380856
:20466000509339082093320830933308409334085093350884EB90E090933512809334125A
:2046800088E290E090933712809336122FEF30E0309339122093381280EF90E090933B12F1
:2046A00080933A1284E690E090933D1280933C1230933F1220933E128AE999E9A1EBB1E4C1
:2046C0008093F4039093F503A093F603B093F70361E77DE38AE89FE30E949C7F6093F80305
:2046E0007093F9038093FA039093FB0360E070E084EE92E40E94A87F6093FC037093FD0354
:204700008093FE039093FF030E94B37E80E090E0A0E8BFE38093000490930104A09302041B
:20472000B09303041092210880E090E0A0E4B0E48093C0039093C103A093C203B093C303BE
:20474000EAD6E2EFF4E0949108C08091C00085FFFCCF9093C600319694919923B1F7EFE1DE
:20476000F3E0949108C08091C00085FFFCCF9093C600319694919923B1F78091C00085FFCB
:20478000FCCF8AE08093C600E0960FB6F894DEBF0FBECDBFCF91DF910895CF93DF93C2EF5C
:2047A000D4E0FE01949108C08091C00085FFFCCF9093C600319694919923B1F7EBEDF4E054
:2047C000949108C08091C00085FFFCCF9093C600319694919923B1F78091C00085FFFCCF73
:2047E0008AE08093C600FE019491E2EFF4E008C08091C00085FFFCCF9093C60031969491F0
:204800009923B1F74091400A5091410A6091420A7091430A83ED94E00E94BF2E4091440AD0
:204820005091450A6091460A7091470A80ED94E00E94BF2E4091480A5091490A60914A0AA9
:2048400070914B0A8DEC94E00E94BF2E40914C0A50914D0A60914E0A70914F0A8AEC94E09A
:204860000E94BF2EE6E1F2E007C08091C00085FFFCCF31969093C60090819923B1F78091F3
:20488000C00085FFFCCF8AE08093C600FE019491E2EFF4E008C08091C00085FFFCCF9093F2
:2048A000C600319694919923B1F7E0EBF4E0949108C08091C00085FFFCCF9093C600319686
:2048C00094919923B1F78091C00085FFFCCF8AE08093C600FE019491E2EFF4E008C080914A
:2048E000C00085FFFCCF9093C600319694919923B1F74091300A5091310A6091320A70911B
:20490000330A87EA94E00E94BF2E4091340A5091350A6091360A7091370A84EA94E00E94C0
:20492000BF2E4091380A5091390A60913A0A70913B0A81EA94E00E94BF2E40913C0A509172
:204940003D0A60913E0A70913F0A8EE994E00E94BF2EE6E1F2E007C08091C00085FFFCCF93
:2049600031969093C60090819923B1F78091C00085FFFCCF8AE08093C600FE019491E2EFBA
:20498000F4E008C08091C00085FFFCCF9093C600319694919923B1F7E0E8F4E0949108C099
:2049A0008091C00085FFFCCF9093C600319694919923B1F78091C00085FFFCCF8AE0809301
:2049C000C600FE019491E2EFF4E008C08091C00085FFFCCF9093C600319694919923B1F727
:2049E0004091500A5091510A6091520A7091530A87E794E00E94D12E4091540A5091550AB3
:204A00006091560A7091570A84E794E00E94D12E4091580A5091590A60915A0A70915B0A31
:204A200081E794E00E94D12E40915C0A50915D0A60915E0A70915F0A8EE694E00E94D12E2E
:204A4000E6E1F2E007C08091C00085FFFCCF31969093C60090819923B1F78091C00085FF5C
:204A6000FCCF8AE08093C600FE019491E2EFF4E008C08091C00085FFFCCF9093C6003196C7
:204A800094919923B1F7E9E3F4E0949108C08091C00085FFFCCF9093C6003196949199234F
:204AA000B1F78091C00085FFFCCF8AE08093C600FE019491E2EFF4E008C08091C00085FF05
:204AC000FCCF9093C600319694919923B1F74091640A5091650A6091660A7091670A80E30D
:204AE00094E00E94BF2E4091680A5091690A60916A0A70916B0A8DE294E00E94BF2EE6E108
:204B0000F2E007C08091C00085FFFCCF31969093C60090819923B1F78091C00085FFFCCF97
:204B20008AE08093C600FE019491E2EFF4E008C08091C00085FFFCCF9093C60031969491AC
:204B40009923B1F7E8E9F3E0949108C08091C00085FFFCCF9093C600319694919923B1F707
:204B60008091C00085FFFCCF8AE08093C600FE019491E2EFF4E008C08091C00085FFFCCF21
:204B80009093C600319694919923B1F74091600A5091610A6091620A7091630A8FE893E0A0
:204BA0000E94BF2E4091780A5091790A60917A0A70917B0A8CE893E00E94BF2E40912C0A37
:204BC00050912D0A60912E0A70912F0A89E893E00E94D12E40916C0A50916D0A60916E0ACD
:204BE00070916F0A86E893E00E94BF2E4091700A5091710A6091720A7091730A83E893E05B
:204C00000E94BF2E4091740A5091750A6091760A7091770A80E893E00E94BF2EE6E1F2E060
:204C200007C08091C00085FFFCCF31969093C60090819923B1F78091C00085FFFCCF8AE0DE
:204C40008093C600FE019491E2EFF4E008C08091C00085FFFCCF9093C60031969491992339
:204C6000B1F7EEE6F3E0949108C08091C00085FFFCCF9093C600319694919923B1F780918E
:204C8000C00085FFFCCF8AE08093C600FE019491E2EFF4E008C08091C00085FFFCCF9093EE
:204CA000C600319694919923B1F74091320850913308609134087091350885E693E00E94CC
:204CC000BF2E4091360850913708609138087091390882E693E00E94BF2E40913A085091E7
:204CE0003B0860913C0870913D088FE593E00E94BF2EE6E1F2E007C08091C00085FFFCCF00
:204D000031969093C60090819923B1F78091C00085FFFCCF8AE08093C600FE019491E2EF16
:204D2000F4E008C08091C00085FFFCCF9093C600319694919923B1F7E1E5F3E0949108C0F8
:204D40008091C00085FFFCCF9093C600319694919923B1F78091C00085FFFCCF8AE080935D
:204D6000C600FE019491E2EFF4E008C08091C00085FFFCCF9093C600319694919923B1F783
:204D80004091F4035091F5036091F6037091F70387E493E0F4D76091F8037091F9038091EA
:204DA000FA039091FB030E94A27FAB01BC0184E493E0E5D76091FC037091FD038091FE0311
:204DC0009091FF030E94AE7FAB01BC0181E493E0D6D7E6E1F2E007C08091C00085FFFCCF73
:204DE00031969093C60090819923B1F78091C00085FFFCCF8AE08093C600DF91CF910895BE
:204E00001F920F920FB60F920BB60F9211242F933F934F938F939F93EF93FF934091C600CE
:204E2000E0918805F091890531969F012F773070319780918A0590918B052817390739F0F7
:204E4000E85FFA4F40833093890520938805FF91EF919F918F914F913F912F910F900BBE36
:204E60000F900FBE0F901F9018959A01AB01203081EE380780E0480780E0580749F182E07C
:204E80008093C00060E079E08DE390E00E9469DC2150304040405040CA01B90122E030E057
:204EA00040E050E00E9469DC3093C5002093C4008091C10080618093C1008091C10088607B
:204EC0008093C1008091C10080688093C10008951092C00020E130E0E7CF20918A053091A9
:204EE0008B0580918805909189058217930719F42FEF3FEF0EC0F901E85FFA4F80812F5F62
:204F00003F4F2F77307030938B0520938A05282F30E0C901089580918A0590918B059093E6
:204F2000890580938805089508952F923F924F925F926F927F928F929F92AF92BF92CF924E
:204F4000DF92EF92FF920F931F93DF93CF93CDB7DEB7A0970FB6F894DEBF0FBECDBF1C01F2
:204F60006A017B01411551056105710541F440E350E060E070E020E030E08BD055C088247E
:204F800099245401422E55246624772401E010E00C0F1D1F080D191DC701B601A3019201C8
:204FA0000E9447DCF80160830894811C911CA11CB11CC701B601A30192010E9447DCC9019B
:204FC000DA016C017D01C114D104E104F104F1F681E0E82EF12CEC0EFD1EE80CF91C3E01AF
:204FE0000894611C711CD501C4010197A109B1096C01C818D90815C0F601EE0DFF1D4081A2
:205000004A3010F4405D01C0495C552747FD5095652F752FC10120E030E03BD00894E108D0
:20502000F1086E147F0441F7A0960FB6F894DEBF0FBECDBFCF91DF911F910F91FF90EF908F
:20504000DF90CF90BF90AF909F908F907F906F905F904F903F902F9008952115310539F406
:205060008091C00085FFFCCF4093C60008955DCFEF92FF920F931F939A01E62EFF2400E096
:2050800010E0B801A701E9DF1F910F91FF90EF900895EF92FF920F931F93CF93DF93EC01D5
:2050A0007A018B012115310539F48091C00085FFFCCFE092C60019C02A303105A9F477FF7C
:2050C0000FC04DE250E060E070E020E030E0E1DF10950095F094E094E11CF11C011D111DBA
:2050E000CE01B801A7012AE020DFDF91CF911F910F91FF90EF900895EF92FF920F931F9346
:205100007B019A010027F7FC0095102FB801A701C0DF1F910F91FF90EF9008950F931F933B
:205120008C014DE050E060E070E020E030E0B1DFC8014AE050E060E070E020E030E0A9DF0A
:205140001F910F910895CF92DF92EF92FF920F931F938C019A016B01EE24FF24B701A60102
:205160007CDFC801DBDF1F910F91FF90EF90DF90CF9008959F92AF92BF92CF92DF92EF9272
:20518000FF920F931F93CF93DF93EC017A018B01922ECB01BA0120E030E040E050E00E9419
:2051A0004FD8882364F4CE014DE250E060E070E020E030E06EDF17FB109517F9109520E03E
:2051C00030E040E05FE3AA240BC0CA01B90120E030E040E251E40E9456D89B01AC01A39488
:2051E000A91498F3C801B7010E9476D77B018C010E94C3D85B016C010E94EFD89B01AC0136
:20520000C801B7010E9475D77B018C01CE01B601A5012AE030E021DF992099F1E7E1F2E0F3
:2052200007C08091C00085FFFCCF31969093C60090819923B1F725C0C801B70120E030E0EC
:2052400040E251E40E942FDB7B018C010E94BED85B016C01CC24B7FCC094DC2CCE01B601BC
:20526000A5012AE030E015DFC601B5010E94F1D89B01AC01C801B7010E9475D77B018C01D1
:205280009A949920C9F6DF91CF911F910F91FF90EF90DF90CF90BF90AF909F9008956ACFD9
:2052A0000895EF92FF920F931F93CF93DF93EC01E0903E08F0903F080091400810914108EA
:2052C000688179818A819B81A80197010E944FD8882324F4E882F9820A831B83E09042082D
:2052E000F090430800914408109145086C817D818E819F81A80197010E944FD8882324F431
:20530000EC82FD820E831F836091460870914708809148089091490820E030E040E050E0AB
:205320000E9476D77B018C01688579858A859B85A80197010E944FD8882324F4E886F986A1
:205340000A871B87E090C803F090C9030091CA031091CB03688179818A819B81A80197017B
:205360000E945DDA181624F4E882F9820A831B83E090CC03F090CD030091CE031091CF039A
:205380006C817D818E819F81A80197010E945DDA181624F4EC82FD820E831F83E090D00330
:2053A000F090D1030091D2031091D303688579858A859B85A80197010E945DDA181624F442
:2053C000E886F9860A871B87DF91CF911F910F91FF90EF90089580915D0808950F931F937B
:2053E000CF93DF938130910549F46F5F7F4F09F046C08DE895E00E94772141C0892B09F0E8
:205400003EC06F5F7F4FD9F583E994E0909358078093570780915E07882321F08BE597E038
:205420000E94EC68C3E1D7E003E914E005C06F9785E0CD3DD80751F0198308838F818823FF
:20544000B1F3CE0104960E94EC68F1CF83E994E0998388838F81882321F0CE0104960E94AB
:20546000EC6883E994E09093BD058093BC058091C305882321F080EC95E00E94EC68DF9163
:20548000CF911F910F91089580E090E06FEF7FEFA5CF81E090E06FEF7FEFA0CFEF92FF9291
:2054A0000F931F939B01AC0180912108882321F1CA01B90120E030E040E05FE30E942FDBB5
:2054C0007B018C0120E030E040E050E00E944FD8882391F0C801B701A80197010E942FDB00
:2054E0009B01AC01CA012BED3FE049E450E40E942FDB9B01AC0104C020E030E040E85FE3CD
:2055000060E070E080E89FE30E9456D81F910F91FF90EF9008956091C0037091C1038091BC
:20552000C2039091C303BADF6093C4037093C5038093C6039093C70308950E94867F809183
:205540005D08882309F03AC081E080935D088091600890916108A0916208B0916308809312
:20556000640890936508A0936608B0936708EBEEF4E0949108C08091C00085FFFCCF9093FF
:20558000C600319694919923B1F7E2E0F5E0949108C08091C00085FFFCCF9093C6003196A1
:2055A00094919923B1F78091C00085FFFCCF8AE08093C60088EF94E00C941EC10895CF9396
:2055C000DF93F8940E94867F5F9A10924A088A9A10924B088FB7F894909108019160909310
:2055E00008018FBF10924C08129A8CE060E00E946CD2EBEEF4E0949108C08091C00085FF37
:20560000FCCF9093C600319694919923B1F7E1E8F5E0949108C08091C00085FFFCCF9093B8
:20562000C600319694919923B1F78091C00085FFFCCF8AE08093C60088E795E00E942CC17E
:205640007894C5E0D0E008C068EC70E080E090E00E94C9D00E945AC421978FEFCF3FD8078F
:2056600099F7F894FFCF0E94BBD060936A0870936B0880936C0890936D08E0919508F0918A
:205680009608E956F74F80818823A9F4E0EAF5E0949108C08091C00085FFFCCF9093C60009
:2056A000319694919923B1F78091C00085FFFCCF8AE08093C60008950E94BBD060936A0808
:2056C00070936B0880936C0890936D0808956F927F928F929F92AF92BF92CF92DF92EF924F
:2056E000FF920F931F93F82E60917408709175088091760890917708209178083091790812
:2057000040917A0850917B080E946ADA3B014C0100D000D00DB71EB70F5F1F4F6091BA03A0
:205720007091BB03882777FD8095982F0E94F1D82091DA033091DB034091DC035091DD03A2
:205740000E942FDB20E030E040E752E40E9456D820E030E048EC52E40E9456D85B016C014D
:20576000F8016082718282829382F48280915108858382E298E060E878E044E758E020E07B
:2057800001E032E0E32E0E949D4E8091800890918108A0918208B09183088093220890934E
:2057A0002308A0932408B09325088091840890918508A0918608B0918708809326089093B1
:2057C0002708A0932808B09329088091880890918908A0918A08B0918B0880932A08909371
:2057E0002B08A0932C08B0932D0880918C0890918D08A0918E08B0918F0880932E08909331
:205800002F08A0933008B09331088DB79EB706960FB6F8949EBF0FBE8DBF0E94BBD060934E
:205820006A0870936B0880936C0890936D081F910F91FF90EF90DF90CF90BF90AF909F9078
:205840008F907F906F900895CF92DF92EF92FF920F931F9380E898E024DD0E94BBD0609345
:205860006A0870936B0880936C0890936D086091220870912308809124089091250820919E
:2058800080083091810840918208509183080E944FD8882309F07AC0609126087091270879
:2058A0008091280890912908209184083091850840918608509187080E944FD8882309F08E
:2058C00065C06091DA037091DB038091DC039091DD0320E030E040E752E40E9456D87B014C
:2058E0008C0180E898E064E878E048E858E02CE838E0E1E5CE2EE8E0DE2E0E94F85880916A
:20590000800890918108A0918208B09183088093220890932308A0932408B0932508809163
:20592000840890918508A0918608B09187088093260890932708A0932808B0932908809123
:20594000880890918908A0918A08B0918B0880932A0890932B08A0932C08B0932D088091E3
:205960008C0890918D08A0918E08B0918F0880932E0890932F08A0933008B09331081F9104
:205980000F91FF90EF90DF90CF9008956091BA037091BB03882777FD8095982F0E94F1D817
:2059A0002091DA033091DB034091DC035091DD030E942FDB20E030E040E752E40E9456D860
:2059C00020E030E048EC52E488CF8CE895E0A3DAE3EAF5E0949108C08091C00085FFFCCFE1
:2059E0009093C600319694919923B1F7409160085091610860916208709163084F5F5F4FC8
:205A00006F4F7F4F8CE895E02AE030E042DB8091C00085FFFCCF8AE08093C60024CE2F92C4
:205A20003F924F925F926F927F928F929F92AF92BF92CF92DF92EF92FF920F931F93DF9323
:205A4000CF93CDB7DEB728970FB6F894DEBF0FBECDBF98878F838330910508F056C1FC013F
:205A6000EC5CF74FD4903C01660C771C660C771C93012E5D374F3A83298380E090E0A0E08F
:205A8000B0E0F90180839183A283B38382E298E066E278E04AE258E02EE238E00E94F2531B
:205AA000F301E95CF74FE590F590059114916D2D772767FD7095882777FD8095982F0E94F0
:205AC000F1D81B012C0193012058374F3C832B83C801B70120E030E040EC5FE30E942FDB0A
:205AE000A20191010E942FDBAB81BC816D937D938D939C931397F301E655FC4FFE83ED83E8
:205B000060817181828193816093DA037093DB038093DC039093DD0320E030E040E752E488
:205B20000E9456D87B018C0180E898E064E878E048E858E02CE838E0A1E5CA2EA8E0DA2E66
:205B40000E94F8580E94CF7680E090E0A0E0B0E0E981FA8180839183A283B38382E298E059
:205B600066E278E04AE258E02EE238E00E94F253F301ED5BF74F85909590A590B490C50117
:205B8000B4019058A20191010E942FDBAB81BC816D937D938D939C9313976091DA03709146
:205BA000DB038091DC039091DD0320E030E040E752E40E9456D87B018C0180E898E064E8A4
:205BC00078E048E858E02CE838E00E94F8580E94CF76C501B401A50194010E9476D7A201B8
:205BE00091010E942FDBEB81FC816083718382839383AD81BE816D917D918D919C9120E0C8
:205C000030E040E05FE30E942FDB6093DA037093DB038093DC039093DD0320E030E040E789
:205C200052E40E9456D87B018C0180E898E064E878E048E858E02CE838E00E94F8580E94A9
:205C4000CF76F301E15BF74F6591759185919491F301EE5CF74FA080B180C280D380A60141
:205C600095010E9476D77B018C01CB01D801E981FA8180839183A283B383F301E55AF74F21
:205C80006591759185919491FEE38F2EF8E09F2E860C971CA60195010E9476D7D4016D9344
:205CA0007D938D939C931397F301E959F74F6591759185919491E8ECF3E06E0E7F1EA601C1
:205CC00095010E9476D7D3016D937D938D939C931397C701D801EB81FC8180839183A2839C
:205CE000B38380E090E0A0E0B0E08093DA039093DB03A093DC03B093DD030E94AC75AF8175
:205D0000B885A65BB74F81E08C9328960FB6F894DEBF0FBECDBFCF91DF911F910F91FF900B
:205D2000EF90DF90CF90BF90AF909F908F907F906F905F904F903F902F90089540919508C5
:205D40005091960820E630E0B901469F9001479F300D569F300D1124682F772767FD709556
:205D6000C9018F55974F0E94BF119C019093A00880939F0880E0232B09F081E00895FC0159
:205D8000949108C08091C00085FFFCCF9093C600319694919923B1F78CE895E022E030E0C2
:205DA0007ECAFC01949108C08091C00085FFFCCF9093C600319694919923B1F78CE895E06F
:205DC0002AE030E04AC980919F089091A008019660E070E04AE050E00C940B1080919F0821
:205DE0009091A008019660E070E00C94AE0ECF93DF93EC018091510880935F0884E59EDFCC
:205E0000882309F480C0EADF0E94C3D8262F60935F08662309F477C0E2EFF4E0949108C096
:205E20008091C00085FFFCCF9093C600319694919923B1F7CD36D105C1F0CE36D10544F46D
:205E4000C836D105C1F0C936D10509F04DC010C0CA3DD10539F0CD3DD10509F045C0E9E164
:205E6000F2E03FC0E0E3F2E031C0E7E4F2E023C0EEE5F2E015C0E5E7F2E007C08091C0009B
:205E800085FFFCCF31969093C60090819923B1F72BC08091C00085FFFCCF31969093C600D3
:205EA00090819923B1F720C08091C00085FFFCCF31969093C60090819923B1F715C0809162
:205EC000C00085FFFCCF31969093C60090819923B1F70AC08091C00085FFFCCF31969093BA
:205EE000C60090819923B1F78CE895E0622F40E050E0BED88091C00085FFFCCF8AE080936A
:205F0000C60081E001C080E0DF91CF910895AF92BF92CF92DF92EF92FF920F931F93CF93A0
:205F2000DF9312E2E12E18E0F12EC0E8D8E000E010E0F801ED5AFB4F808100DF882331F16E
:205F40004DDF5B016C01F801E55EF74F8081882311F061E002C06091900870E0882777FD1E
:205F60008095982F0E94F1D8F70120813181428153810E942FDB9B01AC01C601B5010E94E4
:205F800076D7688379838A839B8309C0F70180819181A281B38188839983AA83BB830F5F77
:205FA0001F4F84E090E0E80EF91E24960430110509F0BFCF86E4C2DE8823D9F00FDF7B011F
:205FC0008C016093910870939208809393089093940820E030E040E050E00E945DDA181637
:205FE00044F4E092DA03F092DB030093DC031093DD03DF91CF911F910F91FF90EF90DF9028
:20600000CF90BF90AF90089582DF89E497DE882351F0E4DE60937408709375088093760885
:20602000909377080CC080E090E0A0E0B0E08093740890937508A0937608B09377088AE402
:206040007DDE882351F0CADE609378087093790880937A0890937B08089580E090E0A0E032
:20606000B0E08093780890937908A0937A08B0937B0808952F923F924F925F926F927F92CB
:206080008F929F92AF92BF92CF92DF92EF92FF920F931F93DF93CF93CDB7DEB76E970FB62D
:2060A000F894DEBF0FBECDBF30E6A32EB12CE4EAF8E094902AE0822E772473940DC22D3048
:2060C00071F02A3321F48091220A882341F08091230A9091240A8F3591050CF4D9C1E091E2
:2060E000230AF091240A309709F401C3A091250AB091260AAA9D7001AB9DF00CBA9DF00C1C
:206100001124EE0DFF1DEF55F74F10828091220A882309F0B8C11092220AA956B74F1C923C
:2061200087010F55174FC8016EE470E00E94BF119C01009709F4F6C09093A00880939F08C4
:206140002F5F3F4F201B310B2E0D3F1DC9018F55974F60E070E04AE050E00E940B106093E7
:20616000270A7093280A8093290A90932A0AC0906008D0906108E0906208F0906308A7012E
:2061800096012F5F3F4F4F4F5F4F621773078407950709F454C38091250A9091260A9C01A4
:2061A0002A9DC0012B9D900D3A9D900D11248F55974F60EC79E00E947111892B09F03FC307
:2061C000EBEEF4E0949108C08091C00085FFFCCF9093C600319694919923B1F7EDE8F9E01E
:2061E000949108C08091C00085FFFCCF9093C600319694919923B1F78CE895E0B701A60111
:206200002AE030E00E9449288091C00085FFFCCF73C0FE264F5FFC01E40FF11DEF55F74FA4
:20622000E081EA32B1F73093A00820939F08C901019660E070E00E94AE0E0E94BED82F2D91
:2062400030E02617370709F45CC0EBEEF4E0949108C08091C00085FFFCCF9093C600319630
:2062600094919923B1F7EEE6F9E0949108C08091C00085FFFCCF9093C6003196949199234A
:20628000B1F7409160085091610860916208709163088CE895E02AE030E00E9449288091E5
:2062A000C00085FFFCCF28C0EBEEF4E0949108C08091C00085FFFCCF9093C6003196949158
:2062C0009923B1F7E4E4F9E0949108C08091C00085FFFCCF9093C600319694919923B1F773
:2062E0008CE895E0B701A6012AE030E00E9449288091C00085FFFCCF8AE08093C60065DB86
:206300004AC08091270A9091280AA091290AB0912A0A8093600890936108A0936208B0931E
:2063200063083EC0C8016AE270E00E94BF11009709F436C0EBEEF4E0949108C08091C00028
:2063400085FFFCCF9093C600319694919923B1F7EAE1F9E0949108C08091C00085FFFCCF04
:206360009093C600319694919923B1F7409160085091610860916208709163088CE895E0B1
:206380002AE030E00E9449288091C00085FFFCCF8AE08093C6001092240A1092230A6EC29E
:2063A0008091250A9091260A8A9D70018B9DF00C9A9DF00C112487010F55174FC80167E4C2
:2063C00070E00E94BF119C01009791F19093A00880939F082F5F3F4F201B310B2E0D3F1D96
:2063E000C9018F55974F60E070E00E94AE0E0E94BED864307105E0F480915D088823C1F033
:20640000992DE4EAF8E008C08091C00085FFFCCF9093C600319694919923B1F78091C0001E
:2064200085FFFCCF8092C6008AE998E00E941EC18091250A9091260AFC01EA9DC001EB9D6B
:20644000900DFA9D900D11248F55974F6CE872E00E94CA11009709F4B2D88091250A9091CA
:20646000260A019664E070E00E9434DC9093260A8093250A809168089091690801969093AD
:206480006908809368081092240A1092230A24C02B3311F47092220A8091220A8823E1F437
:2064A0002091230A3091240A8091250A9091260A8A9DF0018B9DF00D9A9DF00D1124E20FE7
:2064C000F31FEF55F74F8091210A80832F5F3F4F3093240A2093230A8091880590918905A7
:2064E00020918A0530918B05821B930B8F779070892B09F4BEC180916808909169080497EC
:206500000CF0B7C18CE895E00E946D27282F8093210A8A3009F0D3CDE2CD8091230A9091F2
:20652000240A892B09F0AAC18091680890916908892B09F032C110922B0A2FC14D3099F095
:20654000433211F04A3321F48091220A882359F08091230A9091240A8F35910524F42F5F75
:206560003F4F09F0F5C0209110083091110840911208509113088091080890910908A091D1
:206580000A08B0910B08281739074A075B0708F4A1C0932DE7E8F8E008C08091C00085FF82
:2065A000FCCF9093C600319694919923B1F78091C00085FFFCCF2092C6000E94BBD060931F
:2065C000590870935A0880935B0890935C0820915508309156084091570850915808621BDD
:2065E000730B840B950B28EE33E040E050E00E9447DCF22EE32ED42EC52E2DB73EB7285039
:2066000030400FB6F8943EBF0FBE2DBF0DB71EB70F5F1F4FEDB7FEB7B282A182F801538210
:2066200042826F2D7E2D842F952F20E13EE040E050E00E9447DCF801358324836F2D7E2D05
:206640008D2D9C2D2CE330E040E050E00E9447DCCA01B9012CE330E040E050E00E9447DCCA
:20666000F801778366830E94F711982DE2EFF4E02DB73EB7285F3F4F0FB6F8943EBF0FBE21
:206680002DBF08C08091C00085FFFCCF9093C600319694919923B1F7F50107C08091C0005F
:2066A00085FFFCCF31969093C60090819923B1F78091C00085FFFCCF2092C600C5010E9466
:2066C00032C18DE895E00E94A3208DE895E061E00E9447198091210A833211F490922B0AFE
:2066E0002091230A3091240A2115310519F41092220AC4C08091250A9091260A869DF0015D
:20670000879DF00D969DF00D1124E20FF31FEF55F74F1082FC01E956F74F9082209168081F
:20672000309169082F5F3F4F3093690820936808019664E070E00E9434DC9093260A809371
:20674000250A1092220A1092240A1092230A3AC04B3311F49092220A8091220A882391F564
:206760002091230A3091240A8091250A9091260A869DF001879DF00D969DF00D1124E20F30
:20678000F31FEF55F74F8091210A80832F5F3F4F3093240A2093230A15C090E6692E712CB2
:2067A00099249394E7E8F8E034908AE0282E5E010894A11CB11C03E7402E08E0502EE2EFB6
:2067C000F4E08490209110083091110840911208509113088091080890910908A0910A08B1
:2067E000B0910B08281739074A075B0708F046C0809168089091690804970CF03FC080915B
:206800002B0A8823D9F58091630790916407A0916507B09166078093100890931108A093DE
:206820001208B09313088BE597E00E948C6B9C01482F8093210A8A3009F080CE94CE80919A
:20684000250A9091260A8A9D80018B9D100D9A9D100D1124C8018F55974F6AE270E00E9471
:20686000BF119C01009709F41FCDFF2440E0C801D2CC80918F05882309F04FCE6E960FB652
:20688000F894DEBF0FBECDBFCF91DF911F910F91FF90EF90DF90CF90BF90AF909F908F909E
:2068A0007F906F905F904F903F902F900895DF92EF92FF920F931F93D82E80916808909152
:2068C000690803970CF4D6DB0E94BBD0E0906E08F0906F08009170081091710820916A08AC
:2068E00030916B0840916C0850916D08621B730B840B950BE616F7060807190738F4E11456
:20690000F1040105110511F00E94DF2A8091D6039091D703A091D803B091D9030097A1056F
:20692000B105A1F10E94BBD020916A0830916B0840916C0850916D08621B730B840B950BC6
